:020000040800F2
:100000008805002045010008611100080D0E000858
:100010005D11000851080008CB2500080000000011
:10002000000000000000000000000000751400083F
:10003000D50B0008000000003F1300089D1A0008BF
:100040005F0100085F0100085F0100085F01000810
:100050005F0100085F0100085F0100085F01000800
:100060005F0100085F0100085F0100085F010008F0
:100070005F0100085F0100085F0100085F010008E0
:100080005F0100085F0100085F0100085F010008D0
:100090005F0100085F0100085F0100085F010008C0
:1000A0005F0100085F0100085F0100085F010008B0
:1000B000011B0008691C00085F0100085F010008BF
:1000C0005F0100085F0100085F0100085F01000890
:1000D0005F010008A9210008C1210008D5210008FE
:1000E0005F0100085F0100085F0100085F01000870
:1000F0005F0100085F0100085F0100085F01000860
:100100005F0100085F0100085F0100085F0100084F
:100110005F0100085F0100085F0100085F0100083F
:100120005F0100085F0100085F0100085F0100082F
:10013000DFF80CD000F06AFB00480047953000085B
:10014000880500200648804706480047FEE7FEE78E
:10015000FEE7FEE7FEE7FEE7FEE7FEE7FEE7FEE777
:10016000A11A00083101000840EA01039B0703D0EF
:1001700009E008C9121F08C0042AFAD203E011F8E6
:10018000013B00F8013B521EF9D2704730B50446DE
:100190000020034600E05B1C934203D2E05CCD5C90
:1001A000401BF8D030BD30B480EA010202F00045B7
:1001B00030F0004221F0004013D090B1C30DD40DB7
:1001C000C2F31601C0F31600E41A41F4000140F432
:1001D00000027D34914201D3641C00E04900002CF0
:1001E00002DA30BC002070474FF400000023914237
:1001F00001D3891A034340084FEA4101F7D151B1B5
:10020000914202D14FF0004105E002D24FF00101CE
:1002100001E06FF0010103EBC450284430BC00F052
:10022000BFB92DE9FE4F804681EA0300C00F0C469E
:10023000009021F0004123F00045B8EB0200A941F5
:1002400005D24046214690461C460B46024623F006
:100250000040104347D0270DC7F30A00C3F30A51EB
:100260000290401A019040286BDAC3F3130040F467
:10027000801B0098924620B10023D2EB030A63EB67
:100280000B0B01985946C0F14002504600F067F947
:1002900006460D4650465946019A00F06FF910EB9C
:1002A00008006141002487EA115284EAE7731A4387
:1002B00040D0009A62B3019A012A4FEA075215DC36
:1002C000001B61EB02014FF0004202EA0752CDE948
:1002D0000042001C41F5801132462B4600F0A6F981
:1002E00003B0BDE8F08F40462146F9E7001B61EB03
:1002F0000201001C41F5801300185B412018A2F593
:10030000001747EB030140EAD570B6196D4111E0C3
:100310006D084FEA360645EAC0754FEA0752001BE2
:1003200061EB0201001C41F5801149084FEA3000E1
:100330000019514132462B4603B0BDE8F04F00F0A2
:1003400066B90098012240000023D0EB020263EB63
:10035000E073009821464FEAE074B8EB000061EBCF
:100360000401E9E783F000435BE781F0004158E7CF
:100370002DE9F04D81EA030404F0004B21F0004523
:1003800014464FF0000A23F0004150EA050220D045
:1003900054EA01021DD0C5F30A570246C5F3130300
:1003A000C1F31300C1F30A5640F4801543F48013DF
:1003B000A7EB0608101BD64608F2FD3873EB0500C4
:1003C00002D308F1010801E092185B41B8F1000F77
:1003D00003DA00200146BDE8F08D00204FF48011C3
:1003E000064684460EE0171B73EB050705D3121B68
:1003F00063EB050306434CEA010C49084FEA300061
:1004000092185B4150EA0107EDD152EA030012D085
:1004100082EA040083EA0501084305D0101BAB41C2
:1004200006D20122002306E000224FF0004302E042
:100430006FF0010253101AEB06004CEB085110EB61
:100440000A0041EB0B01BDE8F04D00F0E0B80EB53D
:10045000C10F80EAE0700844CA07002140F233432C
:100460008DE80E000A460B4600F0E0F803B000BD30
:1004700020F00040C10DC0F3160040F400007F29B9
:1004800001DA00207047962903DCC1F19601C840CB
:10049000704796398840704701F0004330B421F02E
:1004A000004150EA010206D00A0DA2F56072C1F3C4
:1004B0001301002A02DC30BC00207047440F44EADC
:1004C000C104C100E01830BC00EBC25000F068B8B5
:1004D00030B50B46014600202022012409E021FA14
:1004E00002F59D4205D303FA02F5491B04FA02F511
:1004F0002844151EA2F10102F1DC30BD2DE9F05FA8
:100500000546002092469B46884606468146402482
:100510001BE0284641464746224600F089F95346EB
:100520005A46C01A914110D311461846224600F08F
:1005300016F82D1A67EB01084F46224601200021CC
:1005400000F00DF817EB00094E41201EA4F1010444
:10055000DFDC484631462A464346BDE8F09F202A64
:1005600004DB203A00FA02F1002070479140C2F10A
:10057000200320FA03F3194390407047202A06DB3A
:10058000CB17203A41FA02F043EAE07306E041FA61
:1005900002F3D040C2F1200291400843194670474F
:1005A0000029A8BF7047401C490008BF20F0010087
:1005B000704710B4B0FA80FC00FA0CF050EA010465
:1005C00004BF10BC704749B1CCF1200421FA04F4F7
:1005D00011FA0CF118BF012121430843A3EB0C01D0
:1005E000CB1D4FEA00614FEA102042BF002010BC33
:1005F000704700EBC35010440029A4BF10BC7047E3
:10060000401C490008BF20F0010010BC704710B525
:10061000141E73F1000408DA401C41F10001921825
:100620005B411A4301D120F0010010BD2DE9F04DCE
:1006300092469B4611B1B1FA81F202E0B0FA80F223
:1006400020329046FFF78BFF04460F4640EA0A002F
:1006500041EA0B0153465A46084313D0114653EA68
:10066000010019D0C8F14002504600F0E1F80546FB
:100670000E46504659464246FFF771FF084305D0E3
:10068000012004E020463946BDE8F08D00200543F6
:1006900046EAE0762C4337430A986305E40AA0EB68
:1006A00008000022FD0A44EA47540A3002D500201F
:1006B0000146E9E7010510196941DDE9084500191E
:1006C0006941BDE8F04DA2E72DE9FE4F81EA030440
:1006D00004F0004421F0004100944FF0000B23F09F
:1006E000004350EA01045ED052EA03045BD0C3F336
:1006F0000A54C1F30A552C44A4F2F3340194A0FB2C
:100700000254C1F3130141F48011C3F3130343F402
:10071000801301FB024400FB034E840A970A44EA5B
:10072000815447EA8357A4FB076802958D0A05FBAD
:1007300007854FEA932C04FB0C542705029D4FEAD2
:10074000065847EA1637B5EB08056EEB070C870E1F
:10075000920E47EA811742EA8312A7FB0201B6EB29
:100760000B0164EB00042B0D43EA0C335E1844EBE1
:100770001C50DA465146E7FB0201C5F313044FEA69
:100780000B3343EA14534FEA0432019C43EA060355
:10079000A4F10C040294009CCDE900B4FFF746FFDD
:1007A00003B0BDE8F08F00200146F9E7C1F30A521B
:1007B000C1F3130140F2FF3341F480119A4202DA8F
:1007C00000200146704740F233439A42A2F233427E
:1007D00002DC524200F02CB8FFF7C1BE30B5041E57
:1007E00071F1000404DB4FF00044404264EB01016E
:1007F000141E73F1000405DB1C464FF00043524207
:1008000063EB0403994208BF904230BD064C074D8C
:1008100006E0E06840F0010394E8070098471034D0
:10082000AC42F6D3FFF788FC2831000848310008B5
:10083000202A04DB203A21FA02F00021704721FA35
:1008400002F3D040C2F1200291400843194670479C
:1008500000BFFEE710B56C480078012806D00228DA
:100860002FD003287DD004287CD1C9E067A001F0F7
:10087000AFFE69A001F0ACFE6848007803281FD1E4
:100880006648407800F00100D0B16548006820F06B
:10089000407000F18070624908600846006820F4EA
:1008A000C07008600846006820F4C0000860084670
:1008B00000F088FF5BA001F08BFE02205249087017
:1008C000A0E05BA001F084FE0C225DA16048FFF770
:1008D0005DFC58BB524A3C21102000F0A9FE4FF4A9
:1008E0007A7000F079F94E48006820F0407000F10D
:1008F00080704B4908600846006820F4C07000F51D
:10090000C07008600846006820F4C000086008460F
:1009100000F058FF40A001F05BFE3FA001F058FE40
:100920003DA001F055FE3CA001F052FE3B4800788E
:1009300004281DD13A48006820F0407000F1807012
:10094000374908600846006820F4C070086008460F
:10095000006820F4C0000860084600F033FF31A0B2
:1009600001E006E04DE001F033FE03202649087067
:1009700048E038A001F02CFE27A001F029FE27480E
:100980000078042818D12648006820F0407000F153
:100990008070234908600846006820F4C070086031
:1009A0000846006820F4C0000860084600F00AFF0E
:1009B00003201549087022E0194A3C21102000F05C
:1009C00037FE4FF47A7000F007F91548006820F000
:1009D000407000F18070124908600846006820F4F9
:1009E000C07000F5807008600846006820F4C00000
:1009F0000860084600F0E6FE01200349087001E0A7
:100A000000E000BF00BF10BD2800002061636163EB
:100A100064617461656E64000D0A00002A000020A4
:100A20004C0000205363616E6E696E670D0A000012
:100A30006163616364617462656E640D0A00000045
:100A400061636163636D646163656E6400000000EF
:100A5000400000206163616364617463656E6400DB
:100A600021B1026842F00102026004E002684FF620
:100A7000FE731A400260704710B50022026847F604
:100A8000F0739A430C6A8B6823430C6923434C69C7
:100A900023438C692343CC6923434C6A23438C6AE8
:100AA00023431A430260CB6843600B6883604B6842
:100AB000C36010BD4160704700B58BB0012108468E
:100AC00000F03EFC1D4800901D480190102002904F
:100AD000002003900490802005900020069007904D
:100AE000202008904FF44050099000200A90694659
:100AF0001448FFF7C1FF01211248FFF7B1FF0F486B
:100B000000900F4820300190002002904020039078
:100B10004FF44050099069460A481430FFF7ACFF83
:100B2000012108481430FFF79BFF0122C021034830
:100B3000001F01F051FC0BB000BD00000438014063
:100B4000AC0000204400024010B540F2244111489E
:100B500001F058FCE8B11048B0F8480040F40040FB
:100B60000D49A1F8480000210C48FFF779FF40210A
:100B70000A48FFF79FFF01210848FFF771FF40F285
:100B80002441044801F030FB024800880148001D60
:100B9000008810BD00380140A40000205800024029
:100BA00070B505460C4600210848FFF759FF22465C
:100BB00007492846FFF7D8FA40210448FFF77AFF93
:100BC00001210248FFF74CFF284670BD5800024043
:100BD000CC0000207047000010490968104AB1FBA2
:100BE000F2F1491E4FF0E02251610021916105218F
:100BF000116108E0401E00BF4FF0E021096901F4D7
:100C000080310029F8D00028F4D14FF0E0210969A3
:100C100021F480314FF0E022116170470000002084
:100C200040420F002DE9F84307460D4614461E4684
:100C3000DDF820800121384600F0A2FB8DF803800A
:100C4000ADF800408DF802606946284600F006F8CD
:100C50002146284600F0D8F8BDE8F8832DE9F04198
:100C6000024600250026002000230024002791F8DA
:100C700003C00CF00F0591F803C00CF0100CBCF190
:100C8000000F03D091F802C04CEA050591F800C0AE
:100C9000BCF1000F31D0146800202BE04FF0010CA4
:100CA0000CFA00F3B1F800C00CEA03069E4220D112
:100CB00083004FF00F0C0CFA03F7BC4305FA03FC5A
:100CC0004CEA040491F803C0BCF1280F06D14FF0A0
:100CD000010C0CFA00FCC2F814C00AE091F803C041
:100CE000BCF1480F05D14FF0010C0CFA00FCC2F822
:100CF00010C0401C0828D1D31460B1F800C0BCF16A
:100D0000FF0F34DD546800202EE000F1080C4FF096
:100D1000010808FA0CF3B1F800C00CEA03069E4281
:100D200021D183004FF00F0C0CFA03F7BC4305FAF6
:100D300003FC4CEA040491F803C0BCF1280F05D170
:100D400000F1080C08FA0CF8C2F8148091F803C0FE
:100D5000BCF1480F07D100F1080C4FF0010808FA68
:100D60000CF8C2F81080401C0828CED35460BDE8AF
:100D7000F0810000F0B50A46002300240021002580
:100D800000F00046B6F1004F02D11D4EF16901E0BE
:100D90001B4E7168C0F3034583B200F44016B6F5EC
:100DA000401F08D121F07061154E766826F07066FC
:100DB000134F7E6012E000F48016B6F5801F06D156
:100DC000032606FA05F4A14341F0706106E0460DE2
:100DD000360103FA06F6B14341F0706122B1460DC7
:100DE000360103FA06F6314300F00046B6F1004F33
:100DF00002D1034EF16101E0014E7160F0BD0000CF
:100E000000000140416170470161704700BFFEE78B
:100E100008B51020032304220A4900901046FFF76A
:100E200001FF01F0F7F9FFF747FE00F0CBF84FF4B0
:100E3000A06000F02FFA044A3C21102000F0F8FBDB
:100E400008BD0000000801404C00002010B51F48FC
:100E5000006820F0407000F180701C4908603C215F
:100E60001A48006861F35420184908600846006871
:100E700020F4C0000860C82048600846006820F4DC
:100E8000C07008600846C06820F0407000F18070B3
:100E9000C86014210D48C06861F354200B49C86034
:100EA0000846C06820F4C000C860C8210748016136
:100EB000C06820F4C07000F5C0700449C8600846DE
:100EC00000F080FC02A001F083FB10BD4C0000206C
:100ED00052756E696E670D0A0000000038B5002576
:100EE0000024102003230F22354900908020FFF7B3
:100EF00099FE48200323F022314900908020FFF71B
:100F000091FE0F212E48FFF77FFFF0212C48FFF7BD
:100F100079FF0120FFF760FE29480830006800F0E3
:100F2000F005102D06D0202D06D0402D06D0802DA6
:100F300008D105E0012407E0022405E0032403E0D2
:100F4000042401E0002400BF00BF482003230F2237
:100F50001B4900908020FFF765FE10200323F0223C
:100F6000174900908020FFF75DFEF0211448FFF73D
:100F70004BFF0F211248FFF745FF0120FFF72CFE22
:100F80000F480830006800F00F05012D06D0022D33
:100F900006D0042D07D0082D0DD108E0E4B20CE0F6
:100FA000201DC4B209E004F10800C4B205E004F158
:100FB0000C00C4B201E0002400BF00BF204638BDD1
:100FC000001C014008B5102003230F220A4900909D
:100FD0008020FFF727FE48200323F02206490090D7
:100FE0008020FFF71FFE0F210348FFF70DFFF021C0
:100FF0000148FFF707FF08BD001C01407CB505460E
:1010000000243DB9424800680190002040494870E2
:1010100001987CBD01F098FF04463E48007830B14D
:1010200001282CD0022831D0032867D158E02CB1F8
:1010300039480088401C3849088010E000203649B3
:10104000088036480088401C3449088008460088DB
:10105000042804DD002032490870304908802E48F9
:10106000008802280ADD00202B4908800120294938
:101070000870002026498870294804703FE002204B
:101080002449087001202249487038E02CB92248D0
:101090000088401C2049088014E000201E49088078
:1010A0001E480088401C1D49088008460088C82842
:1010B00001DDC820088019480088642802DB02206E
:1010C0001349887014480088022808DD002012495E
:1010D000088003200F49087000200D4988700EE039
:1010E00000200C4908700D480088322802DA0120DF
:1010F0000749887000200949088000E000BF00BF50
:10110000074800780249087008460068009080E7A8
:10111000340000202E00002030000020320000208B
:101120003800002070B50446002510E00020094971
:10113000086047F23050FFF74FFD01200649C1F823
:10114000880147F23050FFF747FD681CC5B2A54241
:10115000ECDB70BD880121420000214200BFFEE7A8
:101160007047F8B506460C4615468DF800608DF8B8
:1011700001408DF8025001208DF80300684600F010
:1011800051F8F8BD08B54FF4A06000F083F82520B1
:101190008DF8000002208DF801008DF8020001207A
:1011A0008DF80300684600F03DF8012240F224412A
:1011B000194801F051F94FF4A06000F06BF82620B7
:1011C0008DF8000002208DF801008DF8020001204A
:1011D0008DF80300684600F025F8012240F2244112
:1011E0000E4801F039F94FF4A06000F053F82720C1
:1011F0008DF8000002208DF801008DF8020001201A
:101200008DF80300684600F00DF8012240F22441F9
:10121000034801F021F908BD0038014000440040B6
:101220000048004070B5002100230F22C47804B3A9
:10123000154C246804F4E064C4F5E064210AC1F1AB
:101240000403CA40447804FA03F18478144021432B
:1012500009010E4C0678A155047804F01F050124FD
:10126000AC4005786D11AD0005F1E025C5F80041F1
:1012700009E0047804F01F050124AC40044D067811
:10128000761145F8264070BD0CED00E000E400E06A
:1012900080E100E002490143024A1160704700000A
:1012A0000000FA050CED00E02DE9FF4106468846F6
:1012B00014461D460A9F7020ADF80000ADF802707C
:1012C0000020ADF80400ADF80600ADF80850ADF808
:1012D0000A00ADF80C00ADF80E0004F0010038B1C2
:1012E0006946304600F0ACFD0821304600F0F4FDC0
:1012F000C4F3400038B16946304600F0F7FD0821DC
:10130000304600F045FEC4F3800038B169463046EF
:1013100000F04CFE0821304600F098FEC4F3C000F7
:1013200038B16946304600F09BFE0821304600F097
:10133000D5FE0121304600F04DFDBDE8FF8170472C
:1013400029B1064A52690243044B5A6104E0034A38
:1013500052698243014B5A617047000000100240FD
:1013600029B1064AD2690243044BDA6104E0034A18
:10137000D2698243014BDA617047000000100240DD
:1013800029B1064A92690243044B9A6104E0034A78
:1013900092698243014B9A6170470000001002403D
:1013A00030B500210022002400232D4D6D6805F08A
:1013B0000C0121B1042905D0082923D105E0294DCC
:1013C000056022E0274D05601FE0254D6D6805F49E
:1013D0007012234D6D6805F48034022505EB9242AE
:1013E0001CB9214D554305600BE01D4D6D6805F49A
:1013F00000351DB11C4D5543056002E0194D5543A4
:10140000056002E0174D056000BF00BF144D6D6818
:1014100005F0F0010909154D6B5C0568DD4045607C
:101420000F4D6D6805F4E061090A104D6B5C45686D
:10143000DD4085600A4D6D6805F46051C90A0B4DA9
:101440006B5C4568DD40C560054D6D6805F4404145
:10145000890B074D6B5CC568B5FBF3F5056130BDC5
:101460000010024000127A0000093D001400002024
:1014700024000020704710B500F002F810BD0000F5
:101480000CB50020019000903348006840F4803093
:101490003149086000BF3048006800F40030009017
:1014A0000198401C0190009818B90198B0F5A06F00
:1014B000F1D12948006800F4003010B101200090FB
:1014C00001E0002000900098012843D123480068E3
:1014D00040F01000214908600846006820F0030031
:1014E00008600846006840F0020008601A4840683A
:1014F000194948600846406848600846406840F41A
:10150000806048600846406820F47C1048600846C7
:10151000406840F4E81048600846006840F0807079
:10152000086000BF0C48006800F000700028F9D087
:101530000948406820F003000749486008464068B1
:1015400040F00200486000BF0348406800F00C0013
:101550000828F9D10CBD0000001002400020024014
:1015600008B510200323C2010C490090FFF75AFB75
:1015700010200323C2020A4900900420FFF752FB07
:1015800001200849086000200749C1F8BC01012278
:1015900003211D20FFF7E5FD08BD000000100140FC
:1015A00000080140AC0122420000214208B5102091
:1015B000032301220C4900902020FFF733FB102069
:1015C00003230422084900902020FFF72BFB012071
:1015D0000649086000200649C1F888010222114628
:1015E0001C20FFF7BEFD08BD00140140808122428F
:1015F0000080224208B510200323042209490090EC
:10160000FFF710FB10200323042206490090FFF788
:1016100009FB01200449086000200449C1F88C013D
:1016200008BD0000001001408C012242000022424F
:101630002DE9FE4F83468A46914600200290FFF72F
:101640008FFFFFF7B3FFFFF7D5FF0122114659487F
:1016500000F0ECFB0024A7E004EB440059F8200064
:101660006BF3060004EB440149F8210004EB44004D
:1016700059F8200020F4C07004EB440149F821001F
:1016800004EB440059F820006AF3542004EB4401B1
:1016900049F8210004EB440059F8200020F4C00070
:1016A00004EB440149F82100012004EB440109EB5B
:1016B00081014860002004EB440109EB810188604E
:1016C00004EB440119F8211001F07F0101FB0AF03D
:1016D000FEF7BDFE02460B46CDE90001002036496B
:1016E000FEF746FE07460022344BFEF73BFE05465A
:1016F000FEF7D2FE029024B1012C1CD0022C50D156
:1017000034E02F48006842F21071B0FBF1F0401E47
:1017100085B20298FEF7ACFE86B22A463146012019
:1017200000F0EEFA0021234800F063FB002021497D
:101730002431088035E02248006842F21071B0FB85
:10174000F1F0401E85B20298FEF792FE86B22A465C
:101750003146022000F024FA00214FF0804000F0D2
:1017600048FB00204FF0804188841AE0144800684C
:1017700042F21071B0FBF1F0401E85B20298FEF704
:1017800077FE86B22A463146012000F009FA002190
:101790004FF0804000F02DFB00204FF08041888406
:1017A00000BF00BF601CC4B2022CFFF655AFBDE8FD
:1017B000FE8F0000000400400070A7400000F03FD2
:1017C000000000202DE9F84F83460020009082465B
:1017D0004CE10AEB4A005BF82000C0F301600128ED
:1017E0007ED10AEB4A005BF8200020F040700AEB43
:1017F0004A014BF821000AEB4A015BF82110C1F3C2
:101800004B210AEB4A021BF8222002F07F0201FB67
:1018100002F0FEF71CFE064632460B4600209649B3
:10182000FEF7A6FD04460022944BFEF79BFD804682
:10183000FEF732FE0090BAF1000F06D0BAF1010FA8
:101840005BD0BAF1020F57D1AFE00AEB4A003BF888
:101850002000C0F3C11030B101280CD0022812D0F2
:10186000032828D11BE00120854908600021854814
:1018700000F0BFFA1FE00020814908600021814884
:1018800000F0B7FA17E000207D49086001217D488B
:1018900000F0AFFA00207C49C1F8BC010BE0002049
:1018A000774908600121774800F0A3FA01207649C2
:1018B000C1F8BC0100BF00BF7448006842F210715B
:1018C000B0FBF1F0401E84B20098FEF7D1FD85B266
:1018D00022462946012000F013FA4FF0804100E033
:1018E000C0E00098FEF75FFC0546FEF7C1FD84B23C
:1018F0002146644800F0FFFBB3E00AEB4A003BF8E6
:101900002000C0F3C11030B101280CD0022813D040
:10191000032829D11CE001205D49086000218007CF
:1019200000F067FA20E000205949086000214FF0DC
:10193000804000F05EFA17E0002055490860012160
:10194000880700F056FA00205249C1F888010BE0E0
:1019500000204F4908600121880700F04AFA012061
:101960004C49C1F8880100BF00BF4848006842F2F6
:101970001071B0FBF1F0401E84B20098FEF778FDC4
:1019800085B222462946022000F00AF94FF0804134
:101990000098FEF708FC0546FEF76AFD84B2214672
:1019A0004FF0804000F0A9FB5BE00AEB4A003BF8F7
:1019B0002000C0F3C11030B101280DD0022815D08D
:1019C00003282DD11FE001202D4920390860002176
:1019D000800700F00EFA23E0002029492039086032
:1019E00000214FF0804000F004FA19E00020244963
:1019F000203908600121880700F0FBF90020264902
:101A0000C1F88C010CE000201D492039086001213B
:101A1000880700F0EEF901201F49C1F88C0100BFD2
:101A200000BF1A48006842F21071B0FBF1F0401E8E
:101A300084B20098FEF71CFD85B222462946042098
:101A400000F0AEF84FF080410098FEF7ACFB054681
:101A5000FEF70EFD84B221464FF0804000F04FFBB0
:101A600000BF00BF0AF1010000F0FF0ABAF1020F47
:101A7000FFF6AFAEBDE8F88F0070A7400000F03F62
:101A8000AC0122420004004000002142000000207E
:101A900080812242008022420000224270470000E2
:101AA00010B51348006840F001001149086008466D
:101AB0004068104908400E494860084600680E49D1
:101AC00008400B4908600846006820F48020086040
:101AD0000846406820F4FE0048604FF41F0088600C
:101AE000FFF7C9FC4FF000600449086010BD00001A
:101AF000001002400000FFF8FFFFF6FE08ED00E0D6
:101B000010B50121880700F080F930B3134801694E
:101B10004069814212D1002110484161C06820F41F
:101B2000C07080300D49C8600846C06820F0407021
:101B300000F18070C8600846FFF744FE0748C0689F
:101B4000C0F34150012804D104484069401C0349B6
:101B500048610121880700F049F910BD4C000020C0
:101B60003EB505460C4601210846FFF7F9FBADF8E6
:101B700004500020ADF80200ADF80040ADF80600BA
:101B800069464FF0804000F0BDFA012211469007EF
:101B900000F04CF90121880700F02BF93EBD000050
:101BA000F8B504460D46164601210846FFF7E8FB46
:101BB00001212A48FFF7DEF831462846FFF7D0FF1B
:101BC00004F0010080B10120022302467021009040
:101BD0008007FFF769FB182003234FF400422049D8
:101BE00000900420FFF71EF8C4F3400078B10120F4
:101BF00002231A46702100908007FFF755FB18203A
:101C000003230822174900901046FFF70BF8C4F38E
:101C1000800078B101200223042270210090800707
:101C2000FFF742FB1820032304220D4900901046C1
:101C3000FEF7F8FFC4F3C00078B1012002230822A8
:101C4000702100908007FFF72FFB18200323082244
:101C5000034900900420FEF7E5FFF8BD00011800DD
:101C600000080140000C014010B50121164800F0A9
:101C7000CCF838B31548406814498968884212D1B5
:101C80000020124988600846006820F4C070803047
:101C900008600846006820F0407000F1807008601D
:101CA0000846FFF78FFD09480068C0F3415001283E
:101CB00004D106488068401C04498860012102481C
:101CC00000F094F810BD0000000400404C0000201B
:101CD0003EB505460C4601210220FFF741FBADF859
:101CE00004500020ADF80200ADF80040ADF8060049
:101CF0006946024800F006FA3EBD000000040040BC
:101D0000F8B504460D46164601210846FFF738FB94
:101D100001212C48FFF72EF801212B48FFF72AF864
:101D200031462846FFF7D4FF04F0010078B10120C6
:101D300002230246702100902448FFF7B5FA1820CC
:101D400003231022224900900820FEF76BFFC4F302
:101D5000400078B1012002231A46702100901B48F0
:101D6000FFF7A2FA18200323202219490090082027
:101D7000FEF758FFC4F3800078B10120022304224B
:101D8000702100901148FFF78FFA182003230122D9
:101D90000F4900900820FEF745FFC4F3C00078B15A
:101DA000012002230822702100900848FFF77CFAE6
:101DB000182003230222064900900820FEF732FF74
:101DC000F8BD00000002300000081A0000040040C6
:101DD000000C014021B1028842F08002028004E040
:101DE00002884FF67F731A4002807047CA4302820E
:101DF000704721B1028842F00102028004E00288AB
:101E00004FF6FE731A400280704730B5024600203C
:101E100000230024158A05EA0103958905EA0104D7
:101E200013B10CB1012000E0002030BD1AB183894C
:101E30000B43838102E083898B43838170470000D9
:101E400070B5002400220023058C4FF6FE76354045
:101E50000584028C8388048B4FF68F752C40B51E49
:101E60002C400D882C43751E2A400D892A434D882D
:101E70002A43144DA8420BD0134DA84208D0134D4D
:101E8000A84205D0124DA84202D0124DA84213D14B
:101E90004FF6F7752A404D892A434FF6FB752A40C5
:101EA0008D882A434FF6FF652B404FF6FF552B4098
:101EB0008D892B43CD892B4383800483CD888586F0
:101EC000028470BD002C01400034014000400140FC
:101ED00000440140004801400A460021018B4FF6B2
:101EE000F7731940114301837047000070B5002457
:101EF00000220023058C4FF6EF7635400584028CD6
:101F00008388048B48F6FF752C404FF6FF452C4024
:101F10000D884FF6FF7606EA05252C434FF6DF7550
:101F20002A400D8906EA05152A434D8806EA05155B
:101F30002A43154DA84202D0144DA8421DD14FF698
:101F40007F752A404D894FF6FF7606EA05152A432C
:101F50004FF6BF752A408D8806EA05152A434FF6CD
:101F6000FF352B404FF2FF752B408D8906EA850522
:101F70002B43CD8906EA85052B4383800483CD88D6
:101F80000587028470BD0000002C01400034014030
:101F90000A460021018B4FF2FF7319404FF6FF7381
:101FA00003EA0223194301837047000070B500243F
:101FB00000220023058C4FF6FF6635400584028C15
:101FC0008388848B4FF68F752C404FF6FC752C4020
:101FD0000D882C434FF6FF552A400D894FF6FF76AA
:101FE00006EA05252A434D8806EA05252A43154DAC
:101FF000A84202D0144DA8421DD14FF2FF752A40CD
:102000004D894FF6FF7606EA05252A434FF6FF3540
:102010002A408D8806EA05252A434EF6FF752B4097
:102020004DF6FF752B408D8906EA05152B43CD89AA
:1020300006EA05152B4383808483CD888587028437
:1020400070BD0000002C0140003401400A46002110
:10205000818B4FF6F773194011438183704700005D
:1020600070B5002200230024058C4EF6FF76354023
:102070000584038C8488828B48F6FF752A404FF6CE
:10208000FF452A400D884FF6FF7606EA05252A43CC
:102090004DF6FF752B400D8906EA05352B434D881B
:1020A00006EA05352B430B4DA84202D00A4DA84243
:1020B00008D14BF6FF752C408D894FF6FF7606EA66
:1020C00085152C4384808283CD88A0F840500384FA
:1020D00070BD0000002C0140003401400A46002180
:1020E000818B4FF2FF7319404FF6FF7303EA02230F
:1020F00019438183704781867047018770478187C4
:1021000070470000002202881D4B98420ED01D4BE4
:1021100098420BD0B0F1804F08D01B4B984205D0AD
:102120001A4B984202D01A4B984204D14FF68F7343
:102130001A404B881A43174B984207D0164B9842C7
:1021400004D04FF6FF431A40CB881A4302808B8895
:1021500083850B8803850A4B98420BD0094B984224
:1021600008D00E4B984205D00D4B984202D00D4B33
:10217000984201D10B7A03860123838270470000C5
:10218000002C0140003401400004004000080040E1
:10219000000C0040001000400014004000400140CE
:1021A000004401400048014010B503A000F07AFF50
:1021B000FEF7CAFC10BD0000696E74310D0A000004
:1021C00010B502A000F084FF10BD0000696E7432EB
:1021D0000D0A000010B502A000F090FF10BD000035
:1021E000696E74330D0A000001F40072B2F5007FCD
:1021F00000D100BFCA430280704721B1828942F4F6
:102200000052828104E082894DF6FF731A40828178
:102210007047000000B585B04FF4E13066490860B2
:10222000002088800C20C88001210420FFF7A8F836
:1022300001218803FFF7A4F84FF40070ADF8000007
:1022400018208DF8030003208DF8020069465B48D2
:10225000FEF704FD4FF48060ADF8000004208DF817
:10226000030069465548FEF7F9FC534800680190A1
:102270000020ADF80800ADF80A004F488088ADF89E
:102280000C004D48C088ADF80E000020ADF81000DD
:1022900001A94B4800F006F9FEF774FF01214848F8
:1022A000FFF7ABFF4FF4E13046490860002088801B
:1022B0000C20C88001210420FFF762F801214804A6
:1022C000FFF74EF80420ADF8000018208DF8030049
:1022D00003208DF8020069463848FEF7BFFC08204D
:1022E000ADF8000004208DF8030069463348FEF77E
:1022F000B5FC3448006801900020ADF80800ADF846
:102300000A0030488088ADF80C002E48C088ADF82F
:102310000E000020ADF8100001A92B4800F0C2F813
:1023200001212948FFF769FF4FF4E1302249086095
:10233000002088800C20C88001210820FFF720F8A9
:1023400001218804FFF70CF84FF48060ADF800001D
:1023500018208DF8030003208DF8020069461B4801
:10236000FEF77CFC4FF40060ADF8000004208DF80F
:10237000030069461548FEF771FC15480068019096
:102380000020ADF80800ADF80A0011488088ADF8CB
:102390000C000F48C088ADF80E000020ADF810000A
:1023A00001A90C4800F07EF801210A48FFF725FF3B
:1023B000FEF7E8FE05B000BDA400002000080140C3
:1023C00000380140F000002000440040000C0140B3
:1023D0003C010020004800401AB1838A0B438382ED
:1023E00002E0838A8B438382704702460020B1F566
:1023F000007F00D100BF13880B400BB1012000E02B
:102400000020704770B502460024002300250020FC
:1024100040F66A16B14200D100BFC1F3421501F087
:102420001F03012606FA03F3012D02D196893340DA
:1024300006E0022D02D1168A334001E0968A33402D
:102440000C12012606FA04F41688344013B10CB1BC
:10245000012000E0002070BDF0B5034600240026F6
:102460000025002040F66A17B94200D100BF184687
:10247000C1F3421401F01F06012707FA06F5012CEB
:1024800001D10C3004E0022C01D1103000E01430F6
:102490001AB107682F43076002E00768AF4307607F
:1024A000F0BD00002DE9F04786B005460E46002439
:1024B000A24600BFA1460027B08900B100BF2F4649
:1024C0002C8A4CF6FF700440F08804432C82AC89BF
:1024D0004EF6F3100440B0883189084371890843EF
:1024E0000443AC81AC8A4FF6FF400440B0890443FA
:1024F000AC8201A8FEF754FF1F48874202D1DDF8E5
:1025000010A001E0DDF80CA0A88900F4004040B163
:102510000AEBCA0000EB0A1031684900B0FBF1F881
:1025200007E00AEBCA0000EB0A1031688900B0FB33
:10253000F1F86420B8FBF0F004012009642101FBEC
:102540001089A88900F4004040B1322000EBC90096
:10255000B0FBF1F000F00700044308E0322000EB8C
:1025600009106421B0FBF1F000F00F0004432C814E
:1025700006B0BDE8F087000000380140C1F3080252
:102580008280704770B504460D4629462046FFF705
:10259000F5FF00BF80212046FFF727FF0028F9D074
:1025A00070BD70B505460C4600BF14F8011B2846E7
:1025B000FFF7E8FF20780028F7D100BF4021284628
:1025C000FFF713FF0028F9D070BD00BFFEE7000041
:1025D0000FB4054B10B503A9044A029800F0ECF8BB
:1025E00010BC5DF814FB0000F12E00083C00002038
:1025F00037B514460846064B6A46214600F0DCF81B
:1026000004466946002000F06EFC20463EBD0000F6
:10261000E72E000802E008C8121F08C1002AFAD1FC
:1026200070477047002001E001C1121F002AFBD152
:10263000704700002DE9FF5F82B00021DDE9043022
:10264000020DDDF840B0034318D044F61050A2F25A
:10265000FF3242431514119801281FD0A5EB0B003F
:10266000401C5FEA000A4FF000064E4FDFF8389139
:10267000B046504615D5CAF1000413E01198012464
:102680004AA3012801D16FEA0B010298119AC0E90F
:102690000031C0E9024206B0BDE8F09FCBF1000076
:1026A000DFE704460021404A491842EB0450CDE9D7
:1026B000001012E0E00707D032463B46404649464C
:1026C000FEF702F88046894632463B4610461946D8
:1026D000FDF7FAFF06460F466410002CEAD1DDE94B
:1026E0000401DDE90023BAF1000F06DAFDF7ECFF83
:1026F00042464B46FDF7E8FF05E0FDF739FE42464E
:102700004B46FDF735FE04460E460022284BFEF7E9
:1027100065F803D84FF0FF30014607E00022254B53
:1027200020463146FDF77DFDFEF740F8102409E014
:10273000002C0ADB0A220023FDF7E0FE039B303267
:102740001A55641E50EA0102F2D1641C039AC4F1C6
:1027500011031444119A012A03D0012208430DD118
:102760000AE0084304D000204FF0110B119072E7EB
:10277000A3EB0B056D1E0DE05B4504DD4FF0000281
:1027800005F1010504E003DA4FF00002A5F10105AF
:10279000002AECD002981199C0E90231C0E9004545
:1027A00079E70000000014400000F03F3000000016
:1027B0000000F0430000E03F2DE9FF4F95B09B463D
:1027C0008946064600250FE2252877D100242746B2
:1027D000F84A0121059400E0044316F8013F203B2C
:1027E00001FA03F01042F7D130782A2811D06FF0A7
:1027F0002F033078A0F13002092A16D8059A44F048
:10280000020402EB820203EB42021044761C0590A4
:10281000EFE759F8042B0592002A03DA504244F4FA
:102820000054059044F00204761C30782E2816D10E
:1028300016F8010F44F004042A280DD06FF02F027F
:102840003078A0F13003092B09D807EB870302EB9E
:102850004303C718761CF3E759F8047B761C3078DD
:102860006C280FD006DC4C2817D068280DD06A28B9
:1028700014D104E0742810D07A280FD10DE044F46C
:1028800000140AE044F4801401E044F44014727827
:10289000824202D104F58014761C761C30786628BA
:1028A0000BD013DC582877D009DC002875D04528D8
:1028B000F6D04628F4D047281AD19DE118E06328C5
:1028C00035D0642879D0652812D195E1702873D06D
:1028D00008DC6728F1D069286FD06E280DD06F28EA
:1028E00006D1B5E073282CD0752875D0782874D01F
:1028F0005A46179990476D1C75E1C4F3025002289F
:1029000009D003280DD0D9F8001004280DD00D608F
:1029100009F1040967E1D9F80010EA17C1E900528A
:10292000F6E7D9F800100D80F2E70D70F0E719F81E
:10293000041B8DF8001000208DF80100EA460120EC
:1029400003E059F804AB4FF0FF3061074FF000018E
:1029500002D40DE008F101018846B9420FDA804542
:10296000F8DB1AF808100029F4D108E008F1010199
:1029700088468142FADB1AF808100029F6D105983A
:102980005B46A0EB080721463846179A00F094FAF8
:10299000284400EB080507E04DE029E10DE01AF8B6
:1029A000010B5A4617999047B8F10108F7D25B46D8
:1029B00021463846179A13E142E00A220092C4F3F6
:1029C00002524FF0000A022A08D059F804CB032A19
:1029D0004FEAEC710AD00DE029E02AE009F1070185
:1029E00021F00702F2E802C1914609E00FFA8CFCDF
:1029F0004FEAEC71042A03D14FFA8CFC4FEAEC71D8
:102A0000002907DA0A460021DCF1000C61EB020123
:102A10002D2202E0220504D52B228DF8042001226C
:102A200003E0E20701D02022F7E7904659E00A21AF
:102A300002E010220DE010214FF0000A00910BE09F
:102A400010224FF0000A44F004040827009203E02B
:102A500008224FF0000A0092C4F30252022A05D065
:102A600059F804CB0021032A08D009E009F1070135
:102A700021F00702F2E802C1914605E01FFA8CFC42
:102A8000042A01D10CF0FF0C4FF00008220728D5D2
:102A9000702806D0009B83F0100353EA0A0305D088
:102AA0000EE040228DF80420012208E05CEA0102D9
:102AB00006D030228DF804208DF8050002229046C1
:102AC000009B83F0080353EA0A030AD15CEA01027F
:102AD00001D1620705D530228DF804204FF001089E
:102AE0007F1E582804D034A003900EA802900DE059
:102AF00036A0F9E753466046009AFDF7FFFC84468E
:102B00000398825C0298401E029002705CEA010009
:102B1000F0D1029806A9081A00F1200A600702D530
:102B200024F4803400E00127574502DDA7EB0A00BA
:102B300000E0002000EB0A01009005984144401A93
:102B40000590E00306D45B462146179A059800F0ED
:102B5000B3F90544002706E001A85A46C05D17995D
:102B600090476D1C7F1C4745F6DBE0030CD55B46A8
:102B70002146179A059800F09FF9054404E030209B
:102B80005A46179990476D1C0099481E00900029DD
:102B9000F5DC08E0029802995A460078491C029137
:102BA000179990476D1CBAF10001AAF1010AF1DCF6
:102BB00065E1000009280100303132333435363701
:102BC0003839616263646566000000003031323379
:102BD0003435363738394142434445460000000019
:102BE00000F058F90544761C307800287FF4ECADED
:102BF00019B02846BDE8F08F620700D4062709F116
:102C0000070222F0070CFCE80223E14603F000482B
:102C10005FEA080C02D00FF2702C0DE05FEA045C52
:102C200002D50FF2682C07E05FEAC47C02D00FF2F5
:102C3000602C01E0AFF2700C4FF0FF3823F000433E
:102C4000CDF850C065280CD006DC452809D04628B0
:102C50001DD047283DD13DE0662818D067287ED199
:102C600038E00021112F01DB112000E0781CCDE9B4
:102C7000000106A90EA8FFF7DDFCDDE90F010E9AA1
:102C800003910021009207F1010A04914DE04FF0F9
:102C900000400097CDE9011006A90EA8FFF7CAFC75
:102CA000DDE90F0203920E9B11990022DDF80CA0C2
:102CB0000093049211B9791C00EB010AB7EB0A00EA
:102CC00004D4C0F1FF3007F1010A0490AAEB070019
:102CD000019044E0012F00DA01270021112F01DDCE
:102CE000112000E03846CDE9000106A90EA8FFF743
:102CF000A1FCDDE90F010E9A0391002104910092DD
:102D0000BA4621070CD40399514500DA8A46BAF134
:102D1000010F05DD009AAAF10101515C302908D0AC
:102D2000B84202DA10F1040F06DA0121CDE90110F0
:102D300015E0AAF10101E9E7002805DC0499014446
:102D40000491AAEB000102E0411C514500DD8A46D6
:102D50000499401A401C01904FF000400290200757
:102D600004D40198504501DBCDF8048000208DF893
:102D70004F0002980DF14F07B0F1004F25D02B20E6
:102D80000E9002984FF0020800280CDA40420290A0
:102D90002D200E9007E00A210298FDF799FB3031B3
:102DA000029007F8011DB8F10001A8F10108F2DC5A
:102DB00002980028EFD1791E0E980870307800F044
:102DC000200040F0450007F8020D12A8C01B00F1DA
:102DD00007081498007800B1012000EB0A0101985F
:102DE00001EBE07105984144401A401E0590E00354
:102DF00006D45B462146179A059800F05DF8054415
:102E00001498007818B15A46179990476D1CE00342
:102E100024D55B462146179A059800F04DF80544E5
:102E20001CE00498002807DBDDE90301884203DD8C
:102E30000098405C179901E0179930205A46904756
:102E4000049805F10105401C04900198401E019072
:102E500004D12E205A46179990476D1CBAF10001F3
:102E6000AAF1010ADDDC05E017F8010B5A461799B3
:102E700090476D1CB8F10001A8F10108F4DC5B4635
:102E80002146179A0598ABE62D0000002B000000A4
:102E9000200000002DE9F041044600251E4617469B
:102EA000880404D405E039462020B0476D1C641E18
:102EB000F9D52846BDE8F0812DE9F041044600250A
:102EC0001E469046C80301D5302700E0202788041D
:102ED00004D505E041463846B0476D1C641EF9D55F
:102EE0002846BDE8F0810A68531C0B6010707047DB
:102EF00070B504460D460948008820F04000074997
:102F00000880E1B20548FFF739FB00BF8021034884
:102F1000FFF76BFA0028F9D0204670BD0038014059
:102F200008B50020FEF76AF800909DF800000549FA
:102F300008709DF8010000F0010048709DF8020043
:102F4000887008BD2A00002010B50024FDF7C6FFD8
:102F50000446204610BD000008B54FF4FA60FDF7A6
:102F60003BFE0120FEF74AF8009000203B494871E3
:102F7000FFF7D6FF3A48B0F8480000F4004068B1C7
:102F80000D213648FDF70CFE00203549A1F8480018
:102F90003248FFF71DFB33A0FFF71AFB32480078D9
:102FA000012804D13048407800F0010028B90C22F3
:102FB0002EA12A48FDF7EAF848BB304A3C211020F0
:102FC000FEF736FB4FF47A70FDF706FE2B480068DB
:102FD00020F0407000F180702849086008460068C1
:102FE00020F4C07000F5807008600846006820F486
:102FF000C00008600846FEF7E5FB0120FEF792F8E6
:1030000001201F4908701FA0FFF7E2FA23E01648CD
:10301000007802281FD11448407800F00100D0B198
:103020001648006820F0407000F180701349086075
:103030000846006820F4C07008600846006820F464
:10304000C00008600846FEF7BDFB05200C4908706B
:103050000EA0FFF7BDFAFDF7FDFB08BD4000002004
:10306000A40000200D0A00002A00002061636163B3
:10307000636D646162656E64000000004C000020B6
:1030800028000020537461720D0A000053746F70A1
:103090000D0A0000FDF7BCFEFDF7D8FE01E0FFF7CA
:1030A0005BFFFCE70FB400B5A1B023A8009001A816
:1030B000009A2299FFF79CFA0020009001A903488A
:1030C000FFF76FFA21B05DF814FB000000380140F3
:1030D0000FB400B5A1B023A8009001A8009A2299CE
:1030E000FFF786FA0020009001A90348FFF759FA7C
:1030F00021B05DF814FB0000004400400FB400B59F
:10310000A1B023A8009001A8009A2299FFF770FAB5
:103110000020009001A90348FFF743FA21B05DF8B1
:1031200014FB000000480040483100080000002067
:1031300040000000142600088831000840000020EC
:10314000480500002426000800A24A0400000000F0
:103150000000000001020304060708090000000047
:103160000102030401020304060708090204060819
:10317000000000000000000000000000000000004F
:08318000000000000000000047
:0400000508000131BD
:00000001FF
